{
  "contractName": "SimpleUniswapOracle2",
  "abi": [
    {
      "inputs": [],
      "payable": false,
      "stateMutability": "nonpayable",
      "type": "constructor"
    },
    {
      "constant": false,
      "inputs": [
        {
          "internalType": "address",
          "name": "uniswapV2Pair",
          "type": "address"
        }
      ],
      "name": "update",
      "outputs": [],
      "payable": false,
      "stateMutability": "nonpayable",
      "type": "function"
    },
    {
      "constant": false,
      "inputs": [
        {
          "internalType": "address",
          "name": "uniswapV2Pair",
          "type": "address"
        }
      ],
      "name": "getResult",
      "outputs": [
        {
          "internalType": "uint32",
          "name": "T",
          "type": "uint32"
        },
        {
          "internalType": "uint224",
          "name": "price",
          "type": "uint224"
        }
      ],
      "payable": false,
      "stateMutability": "nonpayable",
      "type": "function"
    }
  ],
  "bytecode": "0x608060405234801561001057600080fd5b506111f6806100206000396000f3fe608060405234801561001057600080fd5b50600436106100365760003560e01c80631c1b87721461003b578063446a37e01461007f575b600080fd5b61007d6004803603602081101561005157600080fd5b81019080803573ffffffffffffffffffffffffffffffffffffffff169060200190929190505050610126565b005b6100c16004803603602081101561009557600080fd5b81019080803573ffffffffffffffffffffffffffffffffffffffff169060200190929190505050610133565b604051808363ffffffff1663ffffffff168152602001827bffffffffffffffffffffffffffffffffffffffffffffffffffffffff167bffffffffffffffffffffffffffffffffffffffffffffffffffffffff1681526020019250505060405180910390f35b61012f81610148565b5050565b60008061013f83610880565b91509150915091565b61015061110d565b6000808373ffffffffffffffffffffffffffffffffffffffff1673ffffffffffffffffffffffffffffffffffffffff1681526020019081526020016000206040518060e0016040529081600082015481526020016001820160009054906101000a900463ffffffff1663ffffffff1663ffffffff1681526020016001820160049054906101000a900463ffffffff1663ffffffff1663ffffffff1681526020016002820160009054906101000a90047bffffffffffffffffffffffffffffffffffffffffffffffffffffffff167bffffffffffffffffffffffffffffffffffffffffffffffffffffffff167bffffffffffffffffffffffffffffffffffffffffffffffffffffffff16815260200160028201601c9054906101000a900463ffffffff1663ffffffff1663ffffffff1681526020016003820160009054906101000a90047bffffffffffffffffffffffffffffffffffffffffffffffffffffffff167bffffffffffffffffffffffffffffffffffffffffffffffffffffffff167bffffffffffffffffffffffffffffffffffffffffffffffffffffffff16815260200160038201601c9054906101000a900460ff161515151581525050905060006103186108a9565b90508063ffffffff16826020015163ffffffff16141561033b578191505061087b565b60008060008573ffffffffffffffffffffffffffffffffffffffff16630902f1ac6040518163ffffffff1660e01b815260040160606040518083038186803b15801561038657600080fd5b505afa15801561039a573d6000803e3d6000fd5b505050506040513d60608110156103b057600080fd5b8101908080519060200190929190805190602001909291908051906020019092919050505092509250925060008086600001511480156103fa57506000866020015163ffffffff16145b9050801561043557826dffffffffffffffffffffffffffff16846dffffffffffffffffffffffffffff16118660c00190151590811515815250505b60008660c001516104c6578773ffffffffffffffffffffffffffffffffffffffff16635909c0d56040518163ffffffff1660e01b815260040160206040518083038186803b15801561048657600080fd5b505afa15801561049a573d6000803e3d6000fd5b505050506040513d60208110156104b057600080fd5b8101908080519060200190929190505050610548565b8773ffffffffffffffffffffffffffffffffffffffff16635a3d54936040518163ffffffff1660e01b815260040160206040518083038186803b15801561050c57600080fd5b505afa158015610520573d6000803e3d6000fd5b505050506040513d602081101561053657600080fd5b81019080805190602001909291905050505b905060008760c001516105935761058e86610562876108bf565b7bffffffffffffffffffffffffffffffffffffffffffffffffffffffff166108ea90919063ffffffff16565b6105cd565b6105cc856105a0886108bf565b7bffffffffffffffffffffffffffffffffffffffffffffffffffffffff166108ea90919063ffffffff16565b5b9050821561064857600084880390508063ffffffff16827bffffffffffffffffffffffffffffffffffffffffffffffffffffffff1602830189600001818152505087896020019063ffffffff16908163ffffffff168152505060008163ffffffff161461064257610641898383858561094a565b5b506106e4565b60008488039050600089602001518903905060008a600001518363ffffffff16857bffffffffffffffffffffffffffffffffffffffffffffffffffffffff16028601039050808b6000018181510191508181525050898b6020019063ffffffff16908163ffffffff168152505060006106d08363ffffffff1683610cf490919063ffffffff16565b90506106df8c8685848861094a565b505050505b876000808b73ffffffffffffffffffffffffffffffffffffffff1673ffffffffffffffffffffffffffffffffffffffff1681526020019081526020016000206000820151816000015560208201518160010160006101000a81548163ffffffff021916908363ffffffff16021790555060408201518160010160046101000a81548163ffffffff021916908363ffffffff16021790555060608201518160020160006101000a8154817bffffffffffffffffffffffffffffffffffffffffffffffffffffffff02191690837bffffffffffffffffffffffffffffffffffffffffffffffffffffffff160217905550608082015181600201601c6101000a81548163ffffffff021916908363ffffffff16021790555060a08201518160030160006101000a8154817bffffffffffffffffffffffffffffffffffffffffffffffffffffffff02191690837bffffffffffffffffffffffffffffffffffffffffffffffffffffffff16021790555060c082015181600301601c6101000a81548160ff021916908315150217905550905050505050505050505b919050565b60008061088b61110d565b61089484610148565b905061089f81610d3e565b9250925050915091565b600064010000000042816108b957fe5b06905090565b60006e010000000000000000000000000000826dffffffffffffffffffffffffffff16029050919050565b6000816dffffffffffffffffffffffffffff167bffffffffffffffffffffffffffffffffffffffffffffffffffffffff16837bffffffffffffffffffffffffffffffffffffffffffffffffffffffff168161094157fe5b04905092915050565b8063ffffffff1661070863ffffffff1611610a28576000856040019063ffffffff16908163ffffffff1681525050600085606001907bffffffffffffffffffffffffffffffffffffffffffffffffffffffff1690817bffffffffffffffffffffffffffffffffffffffffffffffffffffffff1681525050610708856080019063ffffffff16908163ffffffff1681525050818560a001907bffffffffffffffffffffffffffffffffffffffffffffffffffffffff1690817bffffffffffffffffffffffffffffffffffffffffffffffffffffffff1681525050610ced565b61070863ffffffff16610a4e86604001518563ffffffff16610e8a90919063ffffffff16565b63ffffffff161015610b45576000856040015163ffffffff1686606001517bffffffffffffffffffffffffffffffffffffffffffffffffffffffff16028463ffffffff16867bffffffffffffffffffffffffffffffffffffffffffffffffffffffff160201905083866040018181510191509063ffffffff16908163ffffffff1681525050610af8610af3876040015163ffffffff1683610cf490919063ffffffff16565b610f1e565b86606001907bffffffffffffffffffffffffffffffffffffffffffffffffffffffff1690817bffffffffffffffffffffffffffffffffffffffffffffffffffffffff168152505050610cec565b61070863ffffffff168363ffffffff161015610c28578460400151856080019063ffffffff16908163ffffffff168152505084606001518560a001907bffffffffffffffffffffffffffffffffffffffffffffffffffffffff1690817bffffffffffffffffffffffffffffffffffffffffffffffffffffffff168152505082856040019063ffffffff16908163ffffffff16815250508385606001907bffffffffffffffffffffffffffffffffffffffffffffffffffffffff1690817bffffffffffffffffffffffffffffffffffffffffffffffffffffffff1681525050610ceb565b6000856040019063ffffffff16908163ffffffff1681525050600085606001907bffffffffffffffffffffffffffffffffffffffffffffffffffffffff1690817bffffffffffffffffffffffffffffffffffffffffffffffffffffffff168152505082856080019063ffffffff16908163ffffffff1681525050838560a001907bffffffffffffffffffffffffffffffffffffffffffffffffffffffff1690817bffffffffffffffffffffffffffffffffffffffffffffffffffffffff16815250505b5b5b5050505050565b6000610d3683836040518060400160405280601a81526020017f536166654d6174683a206469766973696f6e206279207a65726f000000000000815250610fbf565b905092915050565b600080610d628360800151846040015163ffffffff16610e8a90919063ffffffff16565b915061070863ffffffff168263ffffffff161015610de8576040517f08c379a000000000000000000000000000000000000000000000000000000000815260040180806020018281038252601e8152602001807f53696d706c65556e69737761704f7261636c653a204e4f545f5245414459000081525060200191505060405180910390fd5b6000836040015163ffffffff1684606001517bffffffffffffffffffffffffffffffffffffffffffffffffffffffff160290506000846080015163ffffffff168560a001517bffffffffffffffffffffffffffffffffffffffffffffffffffffffff16029050610e81610e7c8563ffffffff16610e6e848661108590919063ffffffff16565b610cf490919063ffffffff16565b610f1e565b92505050915091565b60008082840190508363ffffffff168163ffffffff161015610f14576040517f08c379a000000000000000000000000000000000000000000000000000000000815260040180806020018281038252601b8152602001807f536166654d6174683a206164646974696f6e206f766572666c6f77000000000081525060200191505060405180910390fd5b8091505092915050565b60007fffffffffffffffffffffffffffffffffffffffffffffffffffffffffffffffff7bffffffffffffffffffffffffffffffffffffffffffffffffffffffff16821115610fb7576040517f08c379a000000000000000000000000000000000000000000000000000000000815260040180806020018281038252602781526020018061119b6027913960400191505060405180910390fd5b819050919050565b6000808311829061106b576040517f08c379a00000000000000000000000000000000000000000000000000000000081526004018080602001828103825283818151815260200191508051906020019080838360005b83811015611030578082015181840152602081019050611015565b50505050905090810190601f16801561105d5780820380516001836020036101000a031916815260200191505b509250505060405180910390fd5b50600083858161107757fe5b049050809150509392505050565b600080828401905083811015611103576040517f08c379a000000000000000000000000000000000000000000000000000000000815260040180806020018281038252601b8152602001807f536166654d6174683a206164646974696f6e206f766572666c6f77000000000081525060200191505060405180910390fd5b8091505092915050565b6040518060e0016040528060008152602001600063ffffffff168152602001600063ffffffff16815260200160007bffffffffffffffffffffffffffffffffffffffffffffffffffffffff168152602001600063ffffffff16815260200160007bffffffffffffffffffffffffffffffffffffffffffffffffffffffff168152602001600015158152509056fe496d7065726d6178556e69737761704f7261636c653a2055494e543232345f4f564552464c4f57a265627a7a723158202b9ef3cae2c44c39dd14d2300ea34d944c9139e8f9b6c2aa315d269550a6fe7764736f6c63430005100032",
  "source": "pragma solidity ^0.5.16;\r\n\r\nimport \"./libraries/SafeMath.sol\";\r\nimport \"./libraries/SafeMath32.sol\";\r\nimport \"./libraries/UQ112x112.sol\";\r\nimport \"./interfaces/IUniswapV2Pair.sol\";\r\n\r\n//TODO ADD EVENTS\r\n//Fuck it: uso l'altro perchè c'è poca differenza e in generale è più semplice ragionare sull'alto\r\n\r\ncontract SimpleUniswapOracle2 {\r\n\tusing SafeMath for uint256;\r\n\tusing SafeMath32 for uint32;\r\n\tusing UQ112x112 for uint224;\r\n\r\n    uint32 internal constant MIN_DELTA = 1800;\r\n\t\t\r\n\tstruct Pair {\r\n\t\tuint256 priceCumulative;\r\n\t\tuint32 blockTimestamp;\r\n\t\tuint32 freshT;\r\n\t\tuint224 freshMA;\r\n\t\tuint32 oldT;\r\n\t\tuint224 oldMA;\r\n\t\tbool referenceInverted; //if false we use price0 (reserve1/reserve0), else we use price1 (reserve0/reserve1)\r\n\t}\r\n\tmapping(address => Pair) internal pairs; //TODO make public\r\n\r\n\tconstructor() public {}\t\r\n\r\n\tfunction toUint224(uint256 input) internal pure returns (uint224) {\r\n\t\trequire(input <= uint224(-1), \"ImpermaxUniswapOracle: UINT224_OVERFLOW\");\r\n\t\treturn uint224(input);\r\n\t}\r\n\r\n\tfunction toUint32(uint256 input) internal pure returns (uint32) {\r\n\t\trequire(input <= uint32(-1), \"ImpermaxUniswapOracle: UINT32_OVERFLOW\");\r\n\t\treturn uint32(input);\r\n\t}\r\n\r\n\tfunction _updateInterval(Pair memory pair, uint224 avg, uint32 T, uint224 priceLast, uint32 priceLastT) internal pure {\r\n\t\tif (MIN_DELTA <= priceLastT) {\r\n\t\t\tpair.freshT = 0;\r\n\t\t\tpair.freshMA = 0;\r\n\t\t\tpair.oldT = MIN_DELTA;\r\n\t\t\tpair.oldMA = priceLast;\r\n\t\t}\r\n\t\telse if (T.add(pair.freshT) < MIN_DELTA) {\r\n\t\t\tuint256 num = uint256(avg) * T + uint256(pair.freshMA) * pair.freshT;\r\n\t\t\tpair.freshT += T;\r\n\t\t\tpair.freshMA = toUint224(num.div(pair.freshT));\r\n\t\t}\r\n\t\telse if (T < MIN_DELTA) {\r\n\t\t\tpair.oldT = pair.freshT;\r\n\t\t\tpair.oldMA = pair.freshMA;\r\n\t\t\tpair.freshT = T;\r\n\t\t\tpair.freshMA = avg;\r\n\t\t}\r\n\t\telse {\r\n\t\t\tpair.freshT = 0;\r\n\t\t\tpair.freshMA = 0;\r\n\t\t\tpair.oldT = T;\r\n\t\t\tpair.oldMA = avg;\r\n\t\t}\r\n\t}\r\n\r\n\tfunction _update(address uniswapV2Pair) internal returns (Pair memory pair) {\r\n\t\tpair = pairs[uniswapV2Pair];\r\n\t\tuint32 blockTimestamp = getBlockTimestamp();\r\n\t\tif (pair.blockTimestamp == blockTimestamp) return pair;\r\n\t\t(uint112 reserve0, uint112 reserve1, uint32 reserveTimestamp) = IUniswapV2Pair(uniswapV2Pair).getReserves();\r\n\t\tbool notInitialized = (pair.priceCumulative == 0 && pair.blockTimestamp == 0);\r\n\t\tif (notInitialized) pair.referenceInverted = (reserve0 > reserve1);\r\n\t\tuint256 priceCumulativeLast = pair.referenceInverted ? \r\n\t\t\tIUniswapV2Pair(uniswapV2Pair).price1CumulativeLast() : IUniswapV2Pair(uniswapV2Pair).price0CumulativeLast();\r\n\t\tuint224 priceLast = pair.referenceInverted ? \r\n\t\t\tUQ112x112.encode(reserve0).uqdiv(reserve1) : UQ112x112.encode(reserve1).uqdiv(reserve0);\r\n\r\n\t\tif (notInitialized) {\r\n\t\t\tuint32 T = blockTimestamp - reserveTimestamp;\r\n\t\t\tpair.priceCumulative = priceCumulativeLast + uint256(priceLast) * T;\r\n\t\t\tpair.blockTimestamp = blockTimestamp;\r\n\t\t\tif (T != 0) _updateInterval(pair, priceLast, T, priceLast, T);\r\n\t\t}\r\n\t\telse {\r\n\t\t\tuint32 priceLastT = blockTimestamp - reserveTimestamp;\r\n\t\t\tuint32 T = blockTimestamp - pair.blockTimestamp;\r\n\t\t\tuint256 cumulativeDiff = priceCumulativeLast + uint256(priceLast) * priceLastT - pair.priceCumulative;\r\n\t\t\tpair.priceCumulative += cumulativeDiff;\r\n\t\t\tpair.blockTimestamp = blockTimestamp;\r\n\t\t\tuint224 avg = uint224(cumulativeDiff.div(T));\r\n\t\t\t_updateInterval(pair, priceLast, T, avg, priceLastT);\r\n\t\t}\r\n\t\t\r\n\t\tpairs[uniswapV2Pair] = pair;\r\n\t}\r\n\t\r\n\tfunction _calculateResult(Pair memory pair) internal pure returns (uint32 T, uint224 price) {\r\n\t\tT = uint32(pair.freshT).add(pair.oldT);\r\n\t\trequire(T >= MIN_DELTA, \"SimpleUniswapOracle: NOT_READY\");\r\n\t\tuint256 freshCum = uint256(pair.freshMA) * pair.freshT;\r\n\t\tuint256 oldCum = uint256(pair.oldMA) * pair.oldT;\r\n\t\tprice = toUint224(freshCum.add(oldCum).div(T));\r\n\t}\r\n\t\r\n\tfunction _getResult(address uniswapV2Pair) internal returns (uint32 T, uint224 price) {\r\n\t\tPair memory pair = _update(uniswapV2Pair);\r\n\t\treturn _calculateResult(pair);\r\n\t}\r\n\t\r\n\t/*** External ***/\r\n\t\r\n\tfunction update(address uniswapV2Pair) external {\r\n\t\t_update(uniswapV2Pair);\r\n\t}\r\n\t\r\n\tfunction getResult(address uniswapV2Pair) external returns (uint32 T, uint224 price) {\r\n\t\treturn _getResult(uniswapV2Pair);\r\n\t}\r\n\r\n\t/*** Utilities ***/\r\n\t\r\n\tfunction getBlockTimestamp() internal view returns (uint32) {\r\n\t\treturn uint32(block.timestamp % 2**32);\r\n\t}\r\n}",
  "sourcePath": "C:/Users/simor/Desktop/simple-uniswap-oracle/contracts/SimpleUniswapOracle2.sol",
  "compiler": {
    "name": "solc",
    "version": "0.5.16+commit.9c3226ce.Emscripten.clang"
  },
  "schemaVersion": "3.3.2",
  "updatedAt": "2020-11-19T23:56:33.452Z",
  "devdoc": {
    "methods": {}
  },
  "userdoc": {
    "methods": {
      "update(address)": {
        "notice": "* External **"
      }
    }
  }
}