{
  "contractName": "SimpleUniswapOracleHarness",
  "abi": [
    {
      "inputs": [],
      "payable": false,
      "stateMutability": "nonpayable",
      "type": "constructor"
    },
    {
      "constant": true,
      "inputs": [
        {
          "internalType": "address",
          "name": "",
          "type": "address"
        }
      ],
      "name": "getPair",
      "outputs": [
        {
          "internalType": "uint256",
          "name": "priceCumulativeA",
          "type": "uint256"
        },
        {
          "internalType": "uint256",
          "name": "priceCumulativeB",
          "type": "uint256"
        },
        {
          "internalType": "uint32",
          "name": "updateA",
          "type": "uint32"
        },
        {
          "internalType": "uint32",
          "name": "updateB",
          "type": "uint32"
        },
        {
          "internalType": "bool",
          "name": "lastIsA",
          "type": "bool"
        },
        {
          "internalType": "bool",
          "name": "priceInverted",
          "type": "bool"
        },
        {
          "internalType": "bool",
          "name": "initialized",
          "type": "bool"
        }
      ],
      "payable": false,
      "stateMutability": "view",
      "type": "function"
    },
    {
      "constant": false,
      "inputs": [
        {
          "internalType": "address",
          "name": "uniswapV2Pair",
          "type": "address"
        }
      ],
      "name": "getResult",
      "outputs": [
        {
          "internalType": "uint32",
          "name": "T",
          "type": "uint32"
        },
        {
          "internalType": "uint224",
          "name": "price",
          "type": "uint224"
        }
      ],
      "payable": false,
      "stateMutability": "nonpayable",
      "type": "function"
    },
    {
      "constant": false,
      "inputs": [
        {
          "internalType": "uint32",
          "name": "_blockTimestamp",
          "type": "uint32"
        }
      ],
      "name": "harnessSetBlockTimestamp",
      "outputs": [],
      "payable": false,
      "stateMutability": "nonpayable",
      "type": "function"
    }
  ],
  "bytecode": "0x608060405234801561001057600080fd5b50610d39806100206000396000f3fe608060405234801561001057600080fd5b50600436106100415760003560e01c80631a788a0214610046578063446a37e0146100ec578063c82acfdd14610193575b600080fd5b6100886004803603602081101561005c57600080fd5b81019080803573ffffffffffffffffffffffffffffffffffffffff1690602001909291905050506101c7565b604051808881526020018781526020018663ffffffff1663ffffffff1681526020018563ffffffff1663ffffffff16815260200184151515158152602001831515151581526020018215151515815260200197505050505050505060405180910390f35b61012e6004803603602081101561010257600080fd5b81019080803573ffffffffffffffffffffffffffffffffffffffff169060200190929190505050610250565b604051808363ffffffff1663ffffffff168152602001827bffffffffffffffffffffffffffffffffffffffffffffffffffffffff167bffffffffffffffffffffffffffffffffffffffffffffffffffffffff1681526020019250505060405180910390f35b6101c5600480360360208110156101a957600080fd5b81019080803563ffffffff1690602001909291905050506105b4565b005b60006020528060005260406000206000915090508060000154908060010154908060020160009054906101000a900463ffffffff16908060020160049054906101000a900463ffffffff16908060020160089054906101000a900460ff16908060020160099054906101000a900460ff169080600201600a9054906101000a900460ff16905087565b60008060008060008573ffffffffffffffffffffffffffffffffffffffff1673ffffffffffffffffffffffffffffffffffffffff168152602001908152602001600020905061029d610c90565b6000808673ffffffffffffffffffffffffffffffffffffffff1673ffffffffffffffffffffffffffffffffffffffff1681526020019081526020016000206040518060e001604052908160008201548152602001600182015481526020016002820160009054906101000a900463ffffffff1663ffffffff1663ffffffff1681526020016002820160049054906101000a900463ffffffff1663ffffffff1663ffffffff1681526020016002820160089054906101000a900460ff161515151581526020016002820160099054906101000a900460ff1615151515815260200160028201600a9054906101000a900460ff16151515158152505090508060c001516103b7576103ac85836105d8565b9350935050506105af565b60006103c1610785565b9050600082608001516103d85782606001516103de565b82604001515b905060006103f0888560a001516107ce565b9050600061025883850363ffffffff16106104c757846080015161041857846020015161041e565b84600001515b905084608001511561047857818660010181905550838660020160046101000a81548163ffffffff021916908363ffffffff16021790555060008660020160086101000a81548160ff0219169083151502179055506104c2565b818660000181905550838660020160006101000a81548163ffffffff021916908363ffffffff16021790555060018660020160086101000a81548160ff0219169083151502179055505b61057e565b84608001516104da5784604001516104e0565b84606001515b925084608001516104f55784600001516104fb565b84602001515b905061025883850363ffffffff16101561057d576040517f08c379a000000000000000000000000000000000000000000000000000000000815260040180806020018281038252601e8152602001807f53696d706c65556e69737761704f7261636c653a204e4f545f5245414459000081525060200191505060405180910390fd5b5b82840397506105a66105a18963ffffffff16838503610a3e90919063ffffffff16565b610a88565b96505050505050505b915091565b80600160006101000a81548163ffffffff021916908363ffffffff16021790555050565b60008060008060008673ffffffffffffffffffffffffffffffffffffffff16630902f1ac6040518163ffffffff1660e01b815260040160606040518083038186803b15801561062657600080fd5b505afa15801561063a573d6000803e3d6000fd5b505050506040513d606081101561065057600080fd5b810190808051906020019092919080519060200190929190805190602001909291905050509250925092506000826dffffffffffffffffffffffffffff16846dffffffffffffffffffffffffffff1611905060006106ae89836107ce565b90508088600001819055508088600101819055506106ca610785565b8860020160006101000a81548163ffffffff021916908363ffffffff1602179055506106f4610785565b8860020160046101000a81548163ffffffff021916908363ffffffff16021790555060018860020160086101000a81548160ff021916908315150217905550818860020160096101000a81548160ff021916908315150217905550600188600201600a6101000a81548160ff0219169083151502179055506000808191508090509650965050505050509250929050565b600080600160009054906101000a900463ffffffff1663ffffffff16146107c057600160009054906101000a900463ffffffff1690506107cb565b6107c8610b29565b90505b90565b60008161085b578273ffffffffffffffffffffffffffffffffffffffff16635909c0d56040518163ffffffff1660e01b815260040160206040518083038186803b15801561081b57600080fd5b505afa15801561082f573d6000803e3d6000fd5b505050506040513d602081101561084557600080fd5b81019080805190602001909291905050506108dd565b8273ffffffffffffffffffffffffffffffffffffffff16635a3d54936040518163ffffffff1660e01b815260040160206040518083038186803b1580156108a157600080fd5b505afa1580156108b5573d6000803e3d6000fd5b505050506040513d60208110156108cb57600080fd5b81019080805190602001909291905050505b905060008060008573ffffffffffffffffffffffffffffffffffffffff16630902f1ac6040518163ffffffff1660e01b815260040160606040518083038186803b15801561092a57600080fd5b505afa15801561093e573d6000803e3d6000fd5b505050506040513d606081101561095457600080fd5b810190808051906020019092919080519060200190929190805190602001909291905050509250925092506000856109c4576109bf8461099385610b3f565b7bffffffffffffffffffffffffffffffffffffffffffffffffffffffff16610b6a90919063ffffffff16565b6109fe565b6109fd836109d186610b3f565b7bffffffffffffffffffffffffffffffffffffffffffffffffffffffff16610b6a90919063ffffffff16565b5b905081610a09610785565b0363ffffffff16817bffffffffffffffffffffffffffffffffffffffffffffffffffffffff1602850194505050505092915050565b6000610a8083836040518060400160405280601a81526020017f536166654d6174683a206469766973696f6e206279207a65726f000000000000815250610bca565b905092915050565b60007fffffffffffffffffffffffffffffffffffffffffffffffffffffffffffffffff7bffffffffffffffffffffffffffffffffffffffffffffffffffffffff16821115610b21576040517f08c379a0000000000000000000000000000000000000000000000000000000008152600401808060200182810382526025815260200180610ce06025913960400191505060405180910390fd5b819050919050565b60006401000000004281610b3957fe5b06905090565b60006e010000000000000000000000000000826dffffffffffffffffffffffffffff16029050919050565b6000816dffffffffffffffffffffffffffff167bffffffffffffffffffffffffffffffffffffffffffffffffffffffff16837bffffffffffffffffffffffffffffffffffffffffffffffffffffffff1681610bc157fe5b04905092915050565b60008083118290610c76576040517f08c379a00000000000000000000000000000000000000000000000000000000081526004018080602001828103825283818151815260200191508051906020019080838360005b83811015610c3b578082015181840152602081019050610c20565b50505050905090810190601f168015610c685780820380516001836020036101000a031916815260200191505b509250505060405180910390fd5b506000838581610c8257fe5b049050809150509392505050565b6040518060e001604052806000815260200160008152602001600063ffffffff168152602001600063ffffffff168152602001600015158152602001600015158152602001600015158152509056fe53696d706c65556e69737761704f7261636c653a2055494e543232345f4f564552464c4f57a265627a7a7231582035cdad9078d5cad924b6bac36af836fa6ec7914fbbac6597fa7d15960729aff364736f6c63430005100032",
  "source": "pragma solidity ^0.5.16;\r\n\r\nimport \"../SimpleUniswapOracle.sol\";\r\n\r\ncontract SimpleUniswapOracleHarness is SimpleUniswapOracle {\r\n\r\n    uint32 internal blockTimestamp;\r\n    \r\n    constructor() public {}\r\n    \r\n    function harnessSetBlockTimestamp(uint32 _blockTimestamp) external {\r\n        blockTimestamp = _blockTimestamp;\r\n    }\r\n    \r\n\tfunction getBlockTimestamp() internal view returns (uint32) {\r\n\t    if (blockTimestamp != 0) return blockTimestamp;\r\n\t\treturn super.getBlockTimestamp();\r\n\t}    \r\n\t\r\n\t/*** VIEW ***/\r\n\r\n\r\n}",
  "sourcePath": "C:/Users/simor/Desktop/simple-uniswap-oracle/contracts/test/SimpleUniswapOracleHarness.sol",
  "compiler": {
    "name": "solc",
    "version": "0.5.16+commit.9c3226ce.Emscripten.clang"
  },
  "schemaVersion": "3.3.2",
  "updatedAt": "2020-11-20T00:22:49.391Z",
  "networkType": "ethereum",
  "devdoc": {
    "methods": {}
  },
  "userdoc": {
    "methods": {}
  }
}